{
  "address": "0x080631fD78DFD19eb7CEe79D7D45B5006F14EA21",
  "abi": [
    {
      "inputs": [
        {
          "internalType": "address",
          "name": "_api3ServerV1Address",
          "type": "address"
        }
      ],
      "stateMutability": "nonpayable",
      "type": "constructor"
    },
    {
      "inputs": [],
      "name": "api3ServerV1",
      "outputs": [
        {
          "internalType": "address",
          "name": "",
          "type": "address"
        }
      ],
      "stateMutability": "view",
      "type": "function"
    },
    {
      "inputs": [],
      "name": "read",
      "outputs": [
        {
          "internalType": "int224",
          "name": "value",
          "type": "int224"
        },
        {
          "internalType": "uint32",
          "name": "timestamp",
          "type": "uint32"
        }
      ],
      "stateMutability": "view",
      "type": "function"
    },
    {
      "inputs": [
        {
          "internalType": "int224",
          "name": "_price",
          "type": "int224"
        }
      ],
      "name": "setMock",
      "outputs": [],
      "stateMutability": "nonpayable",
      "type": "function"
    }
  ],
  "transactionHash": "0xb29f4c338e69f09a78f7539e08f4094a79038037a6110486f0b3ae00a454c10c",
  "args": [
    "0xb459960891Ec9fF8736039F5bAE1897223214C18"
  ],
  "numDeployments": 1,
  "solcInputHash": "f062e116600226a746c448b46c18a903",
  "bytecode": "0x60a060405234801561001057600080fd5b506040516101b43803806101b483398101604081905261002f91610040565b6001600160a01b0316608052610070565b60006020828403121561005257600080fd5b81516001600160a01b038116811461006957600080fd5b9392505050565b60805161012a61008a6000396000604e015261012a6000f3fe6080604052348015600f57600080fd5b5060043610603c5760003560e01c80632d6a744e14604157806357de26a414607d578063eef3767f14609d575b600080fd5b6040516001600160a01b037f00000000000000000000000000000000000000000000000000000000000000001681526020015b60405180910390f35b60005460408051601b9290920b825263ffffffff42166020830152016074565b60ca60a836600460cc565b600080546001600160e01b0319166001600160e01b0392909216919091179055565b005b60006020828403121560dd57600080fd5b813580601b0b811460ed57600080fd5b939250505056fea264697066735822122086df352d86aaf22eaac83152391e3b3c987a09885e030a7cb929f083eae495ac64736f6c63430008160033",
  "devdoc": {
    "kind": "dev",
    "methods": {},
    "version": 1
  },
  "userdoc": {
    "kind": "user",
    "methods": {},
    "version": 1
  },
  "storageLayout": {
    "storage": [
      {
        "astId": 23091,
        "contract": "contracts/testing/oracle/MockAPI3OracleAlwaysAlive.sol:MockAPI3OracleAlwaysAlive",
        "label": "mockPrice",
        "offset": 0,
        "slot": "0",
        "type": "t_int224"
      }
    ],
    "types": {
      "t_int224": {
        "encoding": "inplace",
        "label": "int224",
        "numberOfBytes": "28"
      }
    }
  }
}